:100000000EC015C014C013C012C011C010C00FC064
:100010000EC00DC00CC00BC00AC009C008C011241E
:100020001FBECFE5D2E0DEBFCDBF1ED033C0E8CFCC
:10003000C49A80E493E00197F1F7000080E090E03B
:100040000895C49880E493E00197F1F7000080E000
:1000500090E00895CF93DF93C8E0D0E0E9DF2197E7
:10006000E9F7DF91CF910895BC9AC49AC8EED3E026
:10007000DFDF2197E9F7E5DFE4DFE3DFD9DFE1DF69
:10008000E0DFD6DFDEDFDDDFC8EED3E0D1DF2197B2
:08009000E9F7EACFF894FFCF75
:00000001FF
