:100000000EC015C014C013C012C011C010C00FC064
:100010000EC00DC00CC00BC00AC009C008C011241E
:100020001FBECFE5D2E0DEBFCDBF48D057C0E8CF7E
:10003000C49A80E493E00197F1F7000080E090E03B
:100040000895C49880E493E00197F1F7000080E000
:1000500090E008951F93CF93DF93182FC8E0D0E06E
:1000600010FF02C0E5DF01C0ECDF15952197C1F755
:10007000DF91CF911F910895EF92FF920F931F93FD
:10008000CF93DF938C01FC0101900020E9F73197B9
:10009000EF01C81BD90B7C01C701801B910B8C178A
:1000A0009D072CF4F70181917F01D4DFF5CFDF911B
:1000B000CF911F910F91FF90EF900895BC9AC49A31
:1000C000C8EED3E0B5DF2197E9F7BBDF81E4C2DFFB
:1000D000C8EED3E0ADDF2197E9F7F0CFF894FFCF7A
:00000001FF
