:100000000EC020C01FC01EC01DC01CC01BC01AC017
:1000100019C018C017C016C015C014C013C01124D1
:100020001FBECFE5D2E0DEBFCDBF10E0A0E6B0E05E
:10003000E8E0F1E002C005900D92A636B107D9F7CD
:100040004BD060C0DDCFC49A0895C49808951F9323
:10005000CF93DF93182FF9DF80E493E00197F1F756
:100060000000C8E0D0E010FF02C0EDDF01C0EDDF0E
:10007000159580E493E00197F1F70000219799F737
:10008000E2DF80E493E00197F1F70000DF91CF9188
:100090001F910895EF92FF920F931F93CF93DF93D9
:1000A0008C01FC0101900020E9F73197EF01C81B9A
:1000B000D90B7C01C701801B910B8C179D072CF479
:1000C000F70181917F01C3DFF5CFDF91CF911F91C0
:1000D0000F91FF90EF900895BC9AC49A2FE889E29F
:1000E0009AE0215080409040E1F700C0000080E697
:1000F00090E0D0DF2FE38DE093E0215080409040EE
:08010000E1F7F3CFF894FFCF03
:0601080074657374000031
:00000001FF
