:100000000EC015C014C013C012C011C010C00FC064
:100010000EC00DC00CC00BC00AC009C008C011241E
:100020001FBECFE5D2E0DEBFCDBF26D035C0E8CFC2
:10003000C49A80E493E00197F1F7000080E090E03B
:100040000895C49880E493E00197F1F7000080E000
:1000500090E008951F93CF93DF93182FC8E0D0E06E
:1000600010FF02C0E5DF01C0ECDF15952197C1F755
:10007000DF91CF911F910895BC9AC49AC8EED3E046
:10008000D7DF2197E9F7DDDF81E4E4DFC8EED3E0D5
:0C009000CFDF2197E9F7F0CFF894FFCF05
:00000001FF
